:200000000C9480010C94470A0C94740A0C94A8010C94A8010C94A8010C94A8010C94A80143
:200020000C94A8010C94A8010C94A8010C94A8010C94A8010C94A8010C94A8010C94A80178
:200040000C9443080C94A8010C94540C0C94A20C0C94A8010C94A8010C94A8010C94A801FA
:200060000C94A8010C94A8010A417661696C61626C6520636F6D6D616E64733A0A2020313C
:20008000323320782020202020202D20546F67676C6520636F6E66696775726174696F6E5C
:2000A000206368616E67652070726F74656374696F6E2C20313D556E6C6F636B65640A203A
:2000C000203C6E6E3E206920202020202D20736574206E6F646520494420287374616E6413
:2000E000617264206E6F6465206964732061726520312E2E3236290A20203C6E3E20622039
:2001000020202020202D20736574204D487A2062616E64202834203D203433332C2038208B
:200120003D203836382C2039203D20393135290A20203C6E6E6E3E2067202020202D20731D
:200140006574206E6574776F726B2067726F7570202852464D3132206F6E6C7920616C6C84
:200160006F7773203231322C2030203D20616E79290A20203C6E3E20632020202020202D65
:200180002073657420636F6C6C656374206D6F64652028616476616E6365642C206E6F720F
:2001A0006D616C6C792030290A20202E2E2E2C3C6E6E3E2061202D2073656E642064617460
:2001C00061207061636B657420746F206E6F6465203C6E6E3E2C20776974682061636B0A86
:2001E00020202E2E2E2C3C6E6E3E2073202D2073656E642064617461207061636B65742097
:20020000746F206E6F6465203C6E6E3E2C206E6F2061636B0A20203C6E3E206C2020202009
:2002200020202D207475726E206163746976697479204C4544206F6E2044494738206F6EC0
:20024000206F72206F66660A00202D3E2000202D3E2061636B0A003E2000636F6E666967D5
:20026000206661696C656400204C6F636B3A2000204D487A20002040200020670020690017
:2002800043757272656E7420636F6E66696775726174696F6E3A0A000A5B52464D3250696A
:2002A0005D0A0000000000240027002A0000000000250028002B0000000000230026002978
:2002C0000004040404040404040202020202020303030303030102040810204080010204DA
:2002E000081020010204081020000000070002010000030406000000000000000000050E5D
:2003000011241FBECFEFD8E0DEBFCDBF11E0A0E0B1E0E8E4FDE102C005900D92A232B107FE
:20032000D9F712E0A2E2B1E001C01D92AB3BB107E1F712E0C0E0D3E004C02297FE010E949D
:200340009E0ECE3FD107C9F70E94440C0C94A20E0C940000FB01DC0102C001900D9241500E
:200360005040D8F708951F93CF93DF93EC01FE0121961491112369F01A3029F489E992E0DB
:200380006DE00E94CB0A89E992E0612F0E94CB0AEECFDF91CF911F91089540912201F9994E
:2003A000FECF1FBA80E290E092BD81BD40BD0FB6F894FA9AF99A0FBE30912301F999FECFB2
:2003C0001FBA81E290E092BD81BD30BD0FB6F894FA9AF99A0FBE20912401F999FECF1FBAA4
:2003E00082E290E092BD81BD20BD0FB6F894FA9AF99A0FBE8FEF9FEF8427482F4295482706
:20040000042E469546954025042E469540254770082E892F469507944795902D8427069424
:200420004795902584278327382F32953827032E369536953025032E369530253770082EFF
:20044000892F369507943795902D832706943795902583278227282F22952827022E269595
:2004600026952025022E269520252770082E892F269507942795902D822706942795902544
:20048000822723E230E040E0F999FECF1FBA32BD21BD10BC0FB6F894FA9AF99A0FBE8427BD
:2004A000582F52955827052E569556955025052E569550255770082E892F56950794579517
:2004C000902D852706945795902585272F5F3F4F2E33310509F0D8CF9C019093260180937F
:2004E0002501F999FECF1FBA8EE390E092BD81BD20BD0FB6F894FA9AF99A0FBEF999FECFAF
:200500001FBA8FE390E092BD81BD30BD0FB6F894FA9AF99A0FBE81E00E94D807882321F4BF
:200520008AE592E00E94B30108951F9388E690E00E94B30180E892E00E94B301F999FECF72
:2005400080E290E092BD81BDF89A10B510932201F999FECF81E290E092BD81BDF89A80B599
:2005600080932301F999FECF82E290E092BD81BDF89A80B5809324011F71612F70E0605C59
:200580007F4F89E992E04AE050E00E941B0C8DE792E00E94B30189E992E0612F4AE050E07C
:2005A0000E94AB0B8091220185FF06C089E992E060E071E00E942E0C8AE792E00E94B301DB
:2005C00089E992E0609123014AE050E00E94AB0B86E792E00E94B301E0912201F0E096E061
:2005E000F595E7959A95E1F7EE0FFF1FE75FFE4F6081718189E992E04AE050E00E949A0BE8
:2006000080E792E00E94B30188E692E00E94B30189E992E0609124014AE050E00E94BD0BB7
:2006200081E00E94D8071F9108951F93182F89E061E00E942B0989E0612F0E946A091F9154
:2006400008951F93182F80538A3058F480916C012AE0829FC0011124180F105310936C01F2
:20066000CCC01C3289F490916D01923450F4E92FF0E0E259FE4F80916C0180839F5F909378
:200680006D0110926C01B9C0812F81568A3108F0B0C087E592E00E94B30160916C0189E9B6
:2006A00092E070E04AE050E00E941B0C89E992E0612F0E94F30A193669F11A366CF41236A1
:2006C000D1F113361CF41136A1F46AC0133609F455C0173671F449C0113709F47AC012371B
:2006E0001CF41C3631F470C0133709F459C0183719F00E94950271C080916C018B3709F0E8
:200700006CC090E080912401882309F491E0909324010EC080912401882309F45EC09091BB
:200720006C019F7180912201807E980F909322010E94CD0152C080912401882309F44DC0B0
:2007400080916C01883011F492E005C0893011F091E001C093E090936C019295990F990FC1
:20076000907C809122018F73E0CF809124018823A1F180916C0180932301DACF8091240181
:20078000882359F180916C01882321F080912201806203C0809122018F7D80932201C8CF44
:2007A0001093270140916D014093280180916C01809329012AE231E0EEE6F1E0C901BF012C
:2007C00050E00E94AA0109C080916C010E94150304C080916C018093B00110926D011092E3
:2007E0006C0182E4EEE6F1E0DF011D928A95E9F704C0113214F00E9495021F9108950F93C0
:200800001F93CF93DF9389E992E00E945B0D892B31F089E992E00E948C0D0E9421030E9408
:200820001506882309F47AC08091B1019091B201892B09F073C00091B50181E00E941503E2
:200840008091B40185FF23C08091B40187FD1FC08091220185FD1BC010E00E94A4068823CA
:2008600009F093C01A3009F490C00E9415061F5FF4CF8091B4018F71806C60E070E040E035
:200880000E941B0782E00E94FE0611E001C010E080912301882379F489E992E062E071E026
:2008A0000E942E0C6091B30189E992E070E04AE050E00E941B0C89E992E060E20E94CB0AC3
:2008C0006091B40170E06F71707089E992E04AE050E00E941B0CC0E0D0E011C089E992E056
:2008E00060E20E94CB0AFE01EA54FE4F608189E992E070E04AE050E00E941B0C2196C017EF
:2009000068F389E992E00E94D30A112321F08EE492E00E94B30180E00E9415038091270147
:200920008823C9F10E94A4068823A9F181E00E94150389E492E00E94B3016091280189E9E5
:2009400092E070E04AE050E00E941B0C89E992E065E071E00E94310C80912701813611F068
:2009600080E001C080E290912901992311F09064892B6AE271E0409128010E941B07109247
:20098000270180E00E94150306C08091B40186FF70CF80E872CFDF91CF911F910F9108955F
:2009A00081E00E94150389E992E040E855E260E070E00E94DD0C88E992E00E94B30181E024
:2009C0000E94D8078823F9F0F999FECF80E290E092BD81BDF89A80B580932201F999FECFE8
:2009E00081E290E092BD81BDF89A80B580932301F999FECF82E290E092BD81BDF89A80B512
:200A0000809324010FC081E88093220182ED8093230181E08093240162E042ED0E945C077B
:200A20000E94CD010E94950260ED77E080E090E00E94970889E490EC0E944A0580E00E947C
:200A400015030895782F65B121E030E040E050E00090080104C0220F331F441F551F0A946E
:200A6000D2F7322F822F8095862385B99EBD0DB407FEFDCF4EB57EBD0DB407FEFDCF2EB5FF
:200A8000942F80E045B1342B35B930E0282B392BC9010895E8980E942205E89A089580E0FA
:200AA00090E00E94220580910102853009F054C080E090EB0E942205282F8091030288236B
:200AC00071F490910202992351F080910302E82FF0E0ED54FE4F90838F5F809303028091DA
:200AE0000302E82FF0E0ED54FE4F20838F5F809303028091B1019091B2018227282F229585
:200B00002827022E269526952025022E269520252770082E892F269507942795902D82276E
:200B200006942795902582279093B2018093B1018091B5012091030290E0049630E0821736
:200B400093072CF080910302873408F46DC08DE092E80E94220508958091010287FF2EC010
:200B6000E091B501809101028F5F809301028150ED5FE80FF0E0ED54FE4FE0818091B101A0
:200B80009091B2018E27282F22952827022E269526952025022E269520252770082E892FCF
:200BA000269507942795902D822706942795902582279093B2018093B10130C0809101026A
:200BC0008F5F809301028150833019F184302CF4882399F0813009F516C0893019F08A307A
:200BE000E1F402C0EDE21AC0E09102029091B5018EEF891B8093010211C08091B10190917D
:200C0000B201E82F0BC08091B1019091B201E92F05C08DE092E80E942205EAEA8E2F90E01A
:200C2000805098440E942205089580910102853009F042C08091B5012091030290E0049657
:200C400030E08217930724F0809103028734A0F184E0809301028091B501833430F081E062
:200C600090E09093B2018093B1018091B40186FF12C080910002282F30E0C9018F71907008
:200C80004F9749F08091B40190E0822793278F719070892B89F48091B1019091B201892B20
:200CA00009F044C0E091FE01F091FF01309709F43DC080E0099546C080910102843011F0B8
:200CC00080E008951092B5018091B501809303028FEF9FEF9093B2018093B1012091020284
:200CE0002223D9F08227282F22952827022E269526952025022E269520252770082E892F40
:200D0000269507942795902D822706942795902582279093B2018093B10185E08093010291
:200D20008DED92E80E94220580E008958FEF9FEFAFEFBFEF8093FA019093FB01A093FC0144
:200D4000B093FD0181E0089580910102853099F480910302882379F480E090E00E944A050F
:200D600090FD09C08DE092E80E944A0584E08093010281E0089580E00895982F86FD05C0C1
:200D8000907E809100028F71980F9093B401E091FE01F091FF01309711F081E009958FEF7D
:200DA0009FEF9093B2018093B1018091B1019091B201209102028227282F22952827022E88
:200DC000269526952025022E269520252770082E892F269507942795902D822706942795D5
:200DE000902582279093B2018093B10186E0809301028DE392E80E9422050895282F16C001
:200E00002223A1F093B7233011F484E005C0223011F080E001C08CE0917F892B83BF83B711
:200E2000816083BF889583B78E7F83BF80910102843031F708951F93182F4093B50126EBC9
:200E400031E0C90150E00E94AA01812F0E94BD061F91089525B181E090E0A0E0B0E0009091
:200E6000080104C0880F991FAA1FBB1F0A94D2F7282B25B924B1822B84B98AE061E00E940F
:200E80006A098AE061E00E942B098BE061E00E942B098CE060E00E942B098DE061E00E940A
:200EA0002B0980E58CBD82E060E00E942B0982E061E00E946A0908951F93162F8093000277
:200EC000409302020E942A0780E090E00E94220585E092E80E94220580E098EB02C080E022
:200EE00090E00E94220582E00E94BE09892BB9F3812F90E074E0880F991F7A95E1F7876CF1
:200F000090680E94220580E496EA0E94220586E096EC0E94220582EA94E90E9422058CEA8A
:200F200092EC0E94220510910202112341F083E89AEC0E942205812F90E09E6C06C08BE843
:200F40009AEC0E9422058DE29EEC0E94220583E894EC0E94220580E598E90E94220587E7AF
:200F60009CEC0E94220580E090EE0E94220580E098EC0E94220589E490EC0E94220584E0B6
:200F8000809301028091000290E08F719070892B41F080E06FE475E040E050E00E94110ABE
:200FA00003C080E00E94340A809100021F910895EF92FF920F931F93CF93DF93E82E4FEF40
:200FC0005FEF20E230E0F999FECF32BD21BDF89A80B54827842F82958427082E869586956E
:200FE0008025082E869580258770042E452F869507948795502D4827069487955025482761
:201000002F5F3F4F2034310509F0DDCF452B11F080E032C000E0FF2410E0C0E2D0E0F999EB
:20102000FECFD2BDC1BDF89A60B5112311F4062F0CC0113011F4F62E08C0662351F0EE20EB
:2010400021F089E992E00E94CB0A1F5F21961E3131F7EE2021F089E992E00E94D30A602F67
:2010600070E0E6E075956795EA95E1F7802F4F2D0E945C07802F8F71DF91CF911F910F91FE
:20108000FF90EF9008951F920F920FB60F9211242F933F934F935F936F937F938F939F93E8
:2010A000AF93BF93209108023091090240910A0250910B0270910C02DA01C9010296A11D40
:2010C000B11D672F6A5F6D3730F06D57DA01C9010396A11DB11D60930C0280930802909350
:2010E0000902A0930A02B0930B028091040290910502A0910602B09107020196A11DB11D71
:201100008093040290930502A0930602B0930702BF91AF919F918F917F916F915F914F9145
:201120003F912F910F900FBE0F901F9018959B01AC017FB7F8948091040290910502A0913D
:201140000602B091070266B5A89B05C06F3F19F00196A11DB11D7FBFBA2FA92F982F8827CB
:20116000860F911DA11DB11D63E0880F991FAA1FBB1F6A95D1F7BC012DC0FFB7F8948091A7
:20118000040290910502A0910602B0910702E6B5A89B05C0EF3F19F00196A11DB11DFFBFE3
:2011A000BA2FA92F982F88278E0F911DA11DB11DE3E0880F991FAA1FBB1FEA95D1F7861B84
:2011C000970B885E9340C8F2215030404040504068517C4F211531054105510571F6089579
:2011E000789484B5826084BD84B5816084BD85B5826085BD85B5816085BDEEE6F0E08081CC
:2012000081608083E1E8F0E01082808182608083808181608083E0E8F0E080818160808377
:20122000E1EBF0E0808184608083E0EBF0E0808181608083EAE7F0E0808184608083808120
:20124000826080838081816080838081806880831092C1000895CF93DF93482F50E0CA0192
:201260008B529D4FFC0134914F535D4FFA018491882369F190E0880F991FFC01ED55FD4F36
:20128000A591B491FC01E355FD4FC591D491662351F42FB7F8948C91932F909589238C9388
:2012A000888189230BC0623061F42FB7F8948C91932F909589238C938881832B88832FBFD6
:2012C00006C09FB7F8948C91832B8C939FBFDF91CF910895482F50E0CA0187519D4FFC017E
:2012E0002491CA018B529D4FFC0194914F535D4FFA013491332309F440C0222351F1233048
:2013000071F0243028F42130A1F0223011F514C02630B1F02730C1F02430D9F404C08091F9
:2013200080008F7703C0809180008F7D8093800010C084B58F7702C084B58F7D84BD09C014
:201340008091B0008F7703C08091B0008F7D8093B000E32FF0E0EE0FFF1FE355FD4FA591BC
:20136000B4912FB7F894662321F48C919095892302C08C91892B8C932FBF0895682F70E006
:20138000CB0187519D4FFC012491CB018B529D4FFC0144916F537D4FFB019491992319F42C
:2013A00020E030E03CC0222351F1233071F0243028F42130A1F0223011F514C02630B1F071
:2013C0002730C1F02430D9F404C0809180008F7703C0809180008F7D8093800010C084B58D
:2013E0008F7702C084B58F7D84BD09C08091B0008F7703C08091B0008F7D8093B000892F04
:2014000090E0880F991F89549D4FFC01A591B4918C9120E030E0842311F021E030E0C9011C
:201420000895823000F5E82FF0E0EE0FFF1FE35FFD4F71836083882319F08130A1F408C03F
:20144000809169008C7F842B80936900E89A089580916900440F551F440F551F837F842B04
:2014600080936900E99A0895823080F4882319F0813021F402C0E89801C0E998E82FF0E0C5
:20148000EE0FFF1FE35FFD4F1182108208951F920F920FB60F9211242F933F934F935F938C
:2014A0006F937F938F939F93AF93BF93EF93FF9380910D0290910E02892B29F0E0910D027E
:2014C000F0910E020995FF91EF91BF91AF919F918F917F916F915F914F913F912F910F90DE
:2014E0000FBE0F901F9018951F920F920FB60F9211242F933F934F935F936F937F938F9399
:201500009F93AF93BF93EF93FF9380910F0290911002892B29F0E0910F02F091100209951C
:20152000FF91EF91BF91AF919F918F917F916F915F914F913F912F910F900FBE0F901F9091
:201540001895CF92DF92EF92FF920F931F93CF93DF937C016B018A01C0E0D0E00FC0D60168
:201560006D916D01D701ED91FC910190F081E02DC7010995C80FD91F01501040011511050B
:2015800071F7CE01DF91CF911F910F91FF90EF90DF90CF900895DC01ED91FC910190F08191
:2015A000E02D09950895EF92FF920F931F938C01DC01ED91FC910190F081E02D6DE009950E
:2015C0007C01D801ED91FC910190F081E02DC8016AE009959C012E0D3F1DC9011F910F919C
:2015E000FF90EF900895EF92FF920F931F937C01DC01ED91FC910190F081E02D09958C013B
:20160000C7010E94D30A080F191FC8011F910F91FF90EF900895CF93DF93EC0161157105C3
:2016200019F420E030E00FC0DB010D900020E9F71197A61BB70BE881F9810280F381E02D34
:20164000AD0109959C01C901DF91CF9108954F925F927F928F929F92AF92BF92CF92DF92D1
:20166000EF92FF920F931F93DF93CF93CDB7DEB7A1970FB6F894DEBF0FBECDBF2C01742EC9
:20168000CB01223008F42AE019A231E2C32ED12CCC0EDD1E822E9924AA24BB24672D752F43
:2016A000A50194010E947A0E79018A01C801B701A50194010E945B0E472D461B0894C108BF
:2016C000D1084A3014F4405D01C0495CF6014083E114F1040105110521F07E2C5F2DC801DC
:2016E000DDCFC201B6010E940B0BA1960FB6F894DEBF0FBECDBFCF91DF911F910F91FF90DF
:20170000EF90DF90CF90BF90AF909F908F907F905F904F900895DC012115310541F4ED912A
:20172000FC910190F081E02D642F099508950E94270B0895EF92FF920F931F939A017B0151
:2017400000E010E0B801A7010E948B0B1F910F91FF90EF900895EF92FF920F931F939A0124
:20176000E62EFF2400E010E0B801A7010E948B0B1F910F91FF90EF900895CF92DF92EF927B
:20178000FF920F931F936C01E62E9A01FF2400E010E0B801A7010E948B0B8C01C6010E94C6
:2017A000D30A080F191FC8011F910F91FF90EF90DF90CF900895CF92DF92EF92FF920F93E5
:2017C0001F93CF93DF93EC016A017B012115310541F4E881F9810190F081E02D642F0995EB
:2017E0001FC02A303105D1F477FF17C0E881F9810190F081E02D6DE209958C014427552715
:20180000BA014C195D096E097F09CE012AE00E94270B9801280F391F04C02AE00E94270BCC
:201820009C01C901DF91CF911F910F91FF90EF90DF90CF900895EF92FF920F931F937B01C6
:201840009A010027F7FC0095102FB801A7010E94DB0B1F910F91FF90EF9008950E940B0B63
:201860000895EF92FF920F931F937C010E940B0B8C01C7010E94D30A080F191FC8011F9194
:201880000F91FF90EF900895CF93DF930E94F0080E94D004CFE8DCE00E94FF032097E1F377
:2018A0000E948F0CF9CF08951F920F920FB60F9211242F933F934F938F939F93EF93FF93BB
:2018C0008091C00082FD1DC04091C60020915102309152022F5F3F4F2F7330708091530267
:2018E000909154022817390771F0E0915102F0915202EF5EFD4F408330935202209351027F
:2019000002C08091C600FF91EF919F918F914F913F912F910F900FBE0F901F901895E09186
:20192000A502F091A602E05CFF4F8191919120813181821B930B8F739070892B11F00E9432
:20194000530C08951F920F920FB60F9211242F933F938F939F93EF93FF9320919502309199
:20196000960280919702909198022817390731F48091C1008F7D8093C10014C0E091970236
:20198000F0919802EB5AFD4F2081809197029091980201968F739070909398028093970293
:2019A0002093C600FF91EF919F918F913F912F910F900FBE0F901F901895AF92BF92DF9254
:2019C000EF92FF920F931F93CF93DF93EC017A018B01DD24D39491E0A92EB12CEC89FD8951
:2019E000DD2069F0C50108A002C0880F991F0A94E2F7808360E874E88EE190E005C01082BE
:201A000060E472E48FE090E0A80197010E947A0E21503040404050405695479537952795A2
:201A200080E12030380720F0DD2011F0DD24D6CFE889F9893083EA89FB89208319A2EE8990
:201A4000FF89408121E030E0C9010C8C02C0880F991F0A94E2F7482B4083EE89FF8940814C
:201A6000C9010D8C02C0880F991F0A94E2F7482B4083EE89FF894081C9010E8C02C0880FC8
:201A8000991F0A94E2F7482B4083EE89FF8980810F8C02C0220F331F0A94E2F7209528238A
:201AA0002083DF91CF911F910F91FF90EF90DF90BF90AF900895DC011C96ED91FC911D976D
:201AC000E05CFF4F2191319180819181281B390B2F733070C9010895DC011C96ED91FC912B
:201AE0001D97E05CFF4F20813181E054F040DF01AE5BBF4F8D919C9111972817390719F47B
:201B00002FEF3FEF07C08D919C91E80FF91F8081282F30E0C9010895DC011C96ED91FC91EF
:201B20001D97E05CFF4F20813181E054F040DF01AE5BBF4F8D919C9111972817390719F43A
:201B40002FEF3FEF10C08D919C911197E80FF91F20818D919C91119701968F739070119693
:201B60009C938E9330E0C9010895DC0191968C919197882339F05496ED91FC91559780819F
:201B800086FFF9CF91961C920895CF93DF93EC01EE85FF85E05CFF4F20813181E054F0408D
:201BA0002F5F3F4F2F733070DF01AE5BBF4F8D919C91119728173907D1F3E05CFF4F80810F
:201BC0009181E054F040E80FF91F6083EE85FF85E05CFF4F31832083EE89FF89208181E0C4
:201BE00090E00F8C02C0880F991F0A94E2F7282B208381E089A3EC89FD89808180648083EC
:201C000081E090E0DF91CF91089510929C0210929B0288EE93E0A0E0B0E080939D02909339
:201C20009E02A0939F02B093A00285E191E090939A028093990281E192E09093A602809355
:201C4000A50285E592E09093A8028093A70285EC90E09093AA028093A90284EC90E0909307
:201C6000AC028093AB0280EC90E09093AE028093AD0281EC90E09093B0028093AF0282ECA1
:201C800090E09093B2028093B10286EC90E09093B4028093B30284E08093B50283E0809310
:201CA000B60287E08093B70285E08093B80281E08093B9020895629FD001739FF001829F45
:201CC000E00DF11D649FE00DF11D929FF00D839FF00D749FF00D659FF00D9927729FB00D1F
:201CE000E11DF91F639FB00DE11DF91FBD01CF0111240895A1E21A2EAA1BBB1BFD010DC068
:201D0000AA1FBB1FEE1FFF1FA217B307E407F50720F0A21BB30BE40BF50B661F771F881F5F
:201D2000991F1A9469F760957095809590959B01AC01BD01CF010895EE0FFF1F0590F49100
:201D4000E02D0994F894FFCF2A00472000206200023B01B1016403930300000000C50DA10C
:201D60000A5B0D8C0D6C0DB50D00F91FBD01CF0111240895A1E21A2EAA1BBB1BFD010DC074
:201D8000FFFFFFFFFFFFFFFFFFFFFFFFFFFFFFFFFFFFFFFFFFFFFFFFFFFFFFFFFFFFFFFF63
:201DA000FFFFFFFFFFFFFFFFFFFFFFFFFFFFFFFFFFFFFFFFFFFFFFFFFFFFFFFFFFFFFFFF43
:201DC000FFFFFFFFFFFFFFFFFFFFFFFFFFFFFFFFFFFFFFFFFFFFFFFFFFFFFFFFFFFFFFFF23
:201DE000FFFFFFFFFFFFFFFFFFFFFFFFFFFFFFFFFFFFFFFFFFFFFFFFFFFFFFFFFFFFFFFF03
:207E0000112484B714BE81FFF0D085E08093810082E08093C00088E18093C10086E08093FC
:207E2000C20089E18093C4008EE0C9D0559A86E028E13EEF91E0309385002093840096BB6C
:207E4000B09BFECF4D9AA8958150A9F7CC24DD2488248394B5E0AB2EA1E19A2EF3E0BF2E49
:207E6000A2D0813461F49FD0082FAFD0023811F0013811F484E001C083E08DD089C0823404
:207E800011F484E103C0853419F485E0A6D080C0853579F488D0E82EFF2485D0082F10E0A0
:207EA000102F00270E291F29000F111F8ED068016FC0863521F484E090D080E0DECF84364D
:207EC00009F040C070D06FD0082F6DD080E0C81680E7D80618F4F601B7BEE895C0E0D1E0ED
:207EE00062D089930C17E1F7F0E0CF16F0E7DF0618F0F601B7BEE89568D007B600FCFDCF1A
:207F0000A601A0E0B1E02C9130E011968C91119790E0982F8827822B932B1296FA010C016F
:207F200087BEE89511244E5F5F4FF1E0A038BF0751F7F601A7BEE89507B600FCFDCF97BE85
:207F4000E89526C08437B1F42ED02DD0F82E2BD03CD0F601EF2C8F010F5F1F4F84911BD0B8
:207F6000EA94F801C1F70894C11CD11CFA94CF0CD11C0EC0853739F428D08EE10CD085E9AE
:207F80000AD08FE07ACF813511F488E018D01DD080E101D065CF982F8091C00085FFFCCF0A
:207FA0009093C60008958091C00087FFFCCF8091C00084FD01C0A8958091C6000895E0E68F
:207FC000F0E098E1908380830895EDDF803219F088E0F5DFFFCF84E1DECF1F93182FE3DF47
:207FE0001150E9F7F2DF1F91089580E0E8DFEE27FF270994FFFFFFFFFFFFFFFFFFFF040425
:00000001FF
