:10000000A5C1F4CA5FC587C5C6C1C5C1C4C1C3C146
:10001000C2C1C1C1C0C117CBBEC1BDC1BCC1BBC182
:10002000BAC1A1C36BC38DC349C348C347C380C30F
:1000300045C354C343C342C3A9C340C33FC33EC324
:100040003DC3A8C33BC38FC339C338C337C336C30B
:1000500037C30A417661696C61626C6520636F6DBC
:100060006D616E64733A0A2020313233207820208B
:10007000202020202D20546F67676C6520636F6EF1
:1000800066696775726174696F6E206368616E6717
:10009000652070726F74656374696F6E2C20313DDA
:1000A000556E6C6F636B65640A20203C6E6E3E205B
:1000B0006920202020202D20736574206E6F6465D8
:1000C00020494420287374616E64617264206E6FED
:1000D0006465206964732061726520312E2E32368A
:1000E000290A20203C6E3E20622020202020202D46
:1000F00020736574204D487A2062616E6420283434
:10010000203D203433332C2038203D203836382C05
:100110002039203D20393135290A20203C6E6E6E71
:100120003E2067202020202D20736574206E65748A
:10013000776F726B2067726F7570202852464D3151
:1001400032206F6E6C7920616C6C6F777320323166
:10015000322C2030203D20616E79290A20203C6E0F
:100160003E20632020202020202D207365742063F2
:100170006F6C6C656374206D6F64652028616476B4
:10018000616E6365642C206E6F726D616C6C79209A
:1001900030290A20202E2E2E2C3C6E6E3E2061200F
:1001A0002D2073656E642064617461207061636BDF
:1001B000657420746F206E6F6465203C6E6E3E2CFB
:1001C00020776974682061636B0A20202E2E2E2C04
:1001D0003C6E6E3E2073202D2073656E642064613A
:1001E0007461207061636B657420746F206E6F643E
:1001F00065203C6E6E3E2C206E6F2061636B0A2082
:10020000203C6E3E206C2020202020202D20747564
:10021000726E206163746976697479204C4544205C
:100220006F6E2044494738206F6E206F72206F66D2
:10023000660A00202D3E2061636B0A003E200063A9
:100240006F6E666967206661696C656400204C6F3B
:10025000636B3A2000204D487A2000204020002087
:10026000670020690043757272656E7420636F6E5B
:1002700066696775726174696F6E3A0A000A5B524B
:10028000464D3250695D0A0000C2010001000500C0
:100290000500030000E1000001000F000F000D0049
:1002A00000960000020019001A001700127A0000E0
:1002B0000700200021001D00807000000B002300BB
:1002C00023002000004B00001400370037003400EA
:1002D000403800001E004B004B0048008025000005
:1002E0003200720072007000C01200006E00E9005F
:1002F000E900E60060090000E500D801D801D50159
:10030000B0040000D301B403B403B1032C01000016
:100310006707DD0EDD0EDA0E003A37003B38003994
:100320003600324002020201010101010101010116
:1003300002048040201008040201000001020304AE
:10034000000000000000E801490EE20111241FBE78
:10035000CFE5D2E0DEBFCDBF10E0A0E6B0E0EEEB2F
:10036000FDE102C005900D92A23AB107D9F711E064
:10037000A2EAB0E001C01D92AF38B107E1F713E087
:10038000CAE4D3E003C02297FE01EADCC634D107F9
:10039000D1F7A2DA08CD34CE8130910551F46F5FE8
:1003A0007F4F79F482EA90E067E043E020E00BD6EB
:1003B0000895892B31F46F5F7F4F19F482EA90E042
:1003C0009AD4089580E090E06FEF7FEFE5DF089525
:1003D00081E090E06FEF7FEFDFDF08951F93CF9311
:1003E000DF93EC01FE0121961491112379F01A306C
:1003F00031F482EA90E06DE040E050E0BBDB82EA5D
:1004000090E0612F40E050E0B5DBECCFDF91CF9181
:100410001F910895CF93DF9380E290E06091B40044
:10042000B4DC81E290E06091B500AFDC82E290E064
:100430006091B600AADC2091B4008FEF9FEF822775
:10044000282F22952827022E269526952025022E34
:10045000269520252770082E892F26950794279505
:10046000902D822706942795902582272091B5000C
:100470008227282F22952827022E2695269520258B
:10048000022E269520252770082E892F2695079461
:100490002795902D822706942795902582272091D5
:1004A000B6008227282F22952827022E26952695EA
:1004B0002025022E269520252770082E892F269587
:1004C00007942795902D82270694279590258227BB
:1004D0009093B8008093B700C3E2D0E0CE0160E013
:1004E00054DC8091B7009091B800BC0180E068278F
:1004F000862F82958627082E869586958025082E3C
:10050000869580258770062E672F86950794879598
:10051000702D682706948795702568277093B8001A
:100520006093B7002196CE33D105C1F68EE390E0FB
:100530002CDC6091B8008FE390E027DC81E0DCD711
:10054000882319F48FE392E049DFDF91CF9108957A
:100550001F9382E590E042DF85E692E03FDF80E294
:1005600090E00BDC182F8093B40081E290E005DC72
:100570008093B50082E290E000DC8093B6001F71AA
:10058000612F70E0605C7F4F82EA90E04AE050E0CB
:10059000DFDA82E692E022DF82EA90E0612F4AE031
:1005A00050E091DA8091B40085FF05C082EA90E0C6
:1005B00060E670E0CCD98FE592E010DF82EA90E04F
:1005C0006091B5004AE050E07EDA8BE592E006DF0C
:1005D000E091B400F0E096E0F595E7959A95E1F7A3
:1005E000EE0FFF1FE359FF4F6081718182EA90E0B7
:1005F0004AE050E058DA85E592E0F0DE8DE492E0E2
:10060000EDDE82EA90E06091B6004AE050E0DCDA8C
:1006100081E072D71F9108951F93182F88E061E041
:10062000C8D888E0612FE9D81F9108951F93182F2B
:1006300080538A3058F48091D00090E06AE070E0F6
:1006400032DB180F10531093D000B7C01C3289F45E
:100650009091D100943150F4E92FF0E0EE52FF4F29
:100660008091D00080839F5F9093D1001092D00042
:10067000A4C0812F81568A3108F09CC08CE392E09F
:10068000ADDE6091D00082EA90E070E04AE050E098
:100690005FDA82EA90E0612F40E050E0B6DA812F25
:1006A000992787FD9095A92FB92FFC01E156F040BD
:1006B000E831F10518F4EF5EFF4F099449DF6EC091
:1006C0008091D0008B3709F069C090E08091B6002E
:1006D000882309F491E09093B6000EC08091B60093
:1006E000882309F45BC09091D0009F718091B40081
:1006F000807E980F9093B4008DDE50C08091B6003C
:10070000882309F44BC08091D000883011F492E026
:1007100005C0893011F091E001C093E09093D000C2
:100720009295990F990F907C8091B4008F73E1CFCF
:100730008091B600882391F18091D0008093B5001C
:10074000DBCF8091B600882349F18091D0008823C7
:1007500021F08091B400806203C08091B4008F7D4D
:100760008093B400C9CF1093B9004091D100409359
:10077000BA008091D0008093BB002CEB30E0E2ED1A
:10078000F0E0C901BF0150E0EFDA08C08091D0006D
:1007900043DF04C08091D0008093E6001092D10026
:1007A0001092D00084E1E2EDF0E0DF011D928A9525
:1007B000E9F703C011320CF0CBDE1F9108950F93BF
:1007C0001F93CF93DF9382EA90E0BED2892B21F072
:1007D00082EA90E098D22ADFFED4882309F470C020
:1007E00080912B0190912C01892B09F069C0009117
:1007F0002F0181E011DF80912E0185FF1FC08091C4
:100800002E0187FD1BC08091B40085FD17C010E04C
:1008100070D5882309F086C01A3009F483C0DBD470
:100820001F5FF6CF80912E018F71806C60E070E0C9
:1008300040E0D4D582E0B9D511E001C010E080914C
:10084000B500882369F482EA90E062E670E07FD820
:1008500060912D0182EA90E070E04AE050E078D9A2
:1008600082EA90E060E240E050E084D960912E019D
:1008700070E06F71707082EA90E04AE050E068D9F1
:10088000C0E0D0E011C082EA90E060E240E050E0D9
:1008900071D9FE01E05DFE4F608182EA90E070E078
:1008A0004AE050E055D92196C01768F382EA90E0FB
:1008B00074D9112319F083E392E090DD80E0ACDE7F
:1008C0008091B9008823A1F114D5882389F181E0B2
:1008D000A3DE82EA90E065E670E039D86091BA0064
:1008E00082EA90E070E04AE050E032D982EA90E09B
:1008F0006AE670E081D98091B900813611F080E01C
:1009000001C080E29091BB00992311F09064892B83
:100910006CEB70E04091BA0061D51092B90080E0B4
:100920007BDE06C080912E0186FF7CCF80E87ECFE3
:10093000DF91CF911F910F91089581E06DDE87E0E7
:1009400060E037D783E061E034D782EA90E040E8A6
:1009500055E260E070E008D18DE792E03FDD81E094
:10096000CBD5882381F080E290E007DA8093B40051
:1009700081E290E002DA8093B50082E290E0FDD956
:100980008093B6000DC081E88093B40082ED80931F
:10099000B50081E08093B60062E042ED46D53ADDD5
:1009A000D7DD60ED77E080E090E0BDD689E490ECA3
:1009B00049D380E031DE0895FC018091E7009091F9
:1009C000E8008E179F0711F480E0089581898E7FDB
:1009D000818B9FB7F894109229018091290180930F
:1009E0002A01F093E800E093E7009FBF81E00895BB
:1009F0000F931F93CF93DF93FC018189A481B5816D
:100A00009381082F027081FF05C08C91892309F41E
:100A100054C004C08C91892309F04FC08185928510
:100A200020E001972FEF8F3F9207D9F7C385D48538
:100A3000A481B581738160E031E040E050E010E0D6
:100A4000CE01212F01972FEF8F3F9207D9F78C917D
:100A5000872311F0632B03C0832F80956823330F06
:100A60004F5F5F4F4830510559F78585968520E0E7
:100A700001972FEF8F3F9207D9F701116095809171
:100A8000290120912A0190E001968F73907030E047
:100A90008217930779F0E0912901F0E0E751FF4FC9
:100AA00060838091290190E001968F73907080930C
:100AB000290103C081898160818BDF91CF911F91D2
:100AC0000F9108951F920F920FB60F9211242F933A
:100AD0003F934F935F936F937F938F939F93AF93C6
:100AE000BF93EF93FF938091E7009091E800009708
:100AF00009F07EDFFF91EF91BF91AF919F918F91B0
:100B00007F916F915F914F913F912F910F900FBE09
:100B10000F901F9018951F920F920FB60F921124ED
:100B20002F933F934F935F936F937F938F939F93F5
:100B3000AF93BF93EF93FF938091E7009091E8000C
:100B4000009709F055DFFF91EF91BF91AF919F9111
:100B50008F917F916F915F914F913F912F910F9066
:100B60000FBE0F901F901895CF92DF92EF92FF92D9
:100B70000F931F93CF93DF938C016A017B01FC01DC
:100B8000108A178616861586148613861286118695
:100B900020E030E0C9016CE070E085D8EC01FC0198
:100BA000E857FD4F85919591A591B4918C159D05C0
:100BB000AE05BF0549F5C90163E070E074D8FC01DA
:100BC000EE0FFF1FEE0FFF1FE457FD4F859194912D
:100BD000F80192878187FE01E257FD4F859194913C
:100BE000F80194878387FE01E057FD4F859194912A
:100BF000F80196878587FE01EE56FD4F8591949109
:100C0000F801908B878706C02F5F3F4F2C3031054E
:100C100009F0C0CFF80185859685892B09F437C086
:100C200042814B3058F59BB7433010F480E201C04D
:100C300080E1892B8BBF433028F0E2E3F0E0A2E3B0
:100C4000B0E004C0E0E4F0E0A0E4B0E05081433064
:100C500040F481E090E002C0880F991F4A95E2F7C6
:100C60000BC02AE030E0241B310981E090E002C093
:100C7000880F991F2A95E2F7852B8C93F8018785B9
:100C8000908920E001972FEF8F3F9207D9F7C80195
:100C900093DEDF91CF911F910F91FF90EF90DF9046
:100CA000CF900895FC0142814B3020F5433028F06D
:100CB000E2E3F0E0A2E3B0E004C0E0E4F0E0A0E4AE
:100CC000B0E05081433040F481E090E002C0880FF2
:100CD000991F4A95E2F70BC02AE030E0241B310946
:100CE00081E090E002C0880F991F2A95E2F7809575
:100CF00085238C930895FC0189E790E0918380839C
:100D0000CF01D0DF08952091E7003091E800281747
:100D1000390731F490912A0180912901981719F42B
:100D20002FEF3FEF0FC0E0912A01F0E0E751FF4FB6
:100D3000208180912A0190E001968F7390708093BA
:100D40002A0130E0C90108952091E7003091E800C0
:100D50002817390719F020E030E00DC080912901F3
:100D600020912A0190E0805C9F4F821B910960E4F2
:100D700070E0BFD79C01C90108950F931F93DC0158
:100D80001F968D919C915097892B19F420E030E0AB
:100D900097C00FB7F89451968C9151971796ED9193
:100DA000FC91189716962C91169781FF8DC0808123
:100DB000822B80831F968D919C915097049620E002
:100DC00001972FEF8F3F9207D9F751968C9151974A
:100DD00081FF35C031E040E050E070E010E0832F4B
:100DE00090E0862397231796ED91FC91189716961D
:100DF0002C911697892B29F0808120952823208318
:100E000003C08081822B80831F968D919C91509787
:100E1000212F01972FEF8F3F9207D9F7330F4F5FA5
:100E20005F4F48305105D9F61796ED91FC91189710
:100E3000908116968C9116978095892333C031E066
:100E400040E050E070E010E0832F90E0862397238D
:100E50001796ED91FC91189716962C911697892B61
:100E600021F08081822B808304C0808120952823FB
:100E700020831F968D919C915097212F01972FEFE2
:100E80008F3F9207D9F7330F4F5F5F4F48305105BF
:100E9000D9F61796ED91FC911897808116969C9142
:100EA0001697892B80830FBF1F968D919C91509729
:100EB00020E001972FEF8F3F9207D9F721E030E034
:100EC000C9011F910F9108958081209528232083C7
:100ED00071CF2091E7003091E8002817390749F4D5
:100EE0009FB7F894109229018091290180932A01DB
:100EF0009FBF08952091E7003091E8002817390737
:100F000031F490912A0180912901981719F42FEF5B
:100F10003FEF0AC0E0912A01F0E0E751FF4F8081E6
:100F2000282F332727FD3095C90108951F93CF93AC
:100F3000DF93EC01162F862F60E03BD4898981FD79
:100F400003C0812F61E059D41A83212F30E0C901F9
:100F5000815D9C4FFC0184918B832C5D3C4FF9019A
:100F60006491E62FF0E0E25EFC4FE491EC831D8299
:100F7000DF91CF911F910895FF920F931F938C01E2
:100F8000F62E862F61E015D48F2D61E036D48F2D9B
:100F900090E0FC01E15DFC4FE491D8011696EC93E2
:100FA00016978C5D9C4FFC016491EBE1F3E0E60F3A
:100FB000F11DE4911796EC93179718961C921F91C8
:100FC0000F91FF900895FF920F931F938C01F62EBF
:100FD00089E790E0F8019183808312861186148658
:100FE000138616861586108A178681892170220F2E
:100FF0008C7F822B818BC801642FBEDFC8016F2DCF
:1010000095DF1F910F91FF900895C1989FB990E0CF
:1010100031E123E13DB92DB99F5F9830D9F73FB158
:101020008FB980E021E193E12DB99DB98F5F8830C0
:10103000D9F72FB1932F80E0C19A30E0282B392BBC
:10104000C90108952BB72F7B2BBFDFDF2BB720649F
:101050002BBF089580E090E0D8DF80917B01853040
:1010600009F052C080E090EBD0DF282F80917D0105
:10107000882371F490917C01992351F080917D0136
:10108000E82FF0E0E35DFE4F90838F5F80937D015A
:1010900080917D01E82FF0E0E35DFE4F20838F5FBC
:1010A00080937D0180912B0190912C018227282F24
:1010B00022952827022E269526952025022E269554
:1010C00020252770082E892F269507942795902D87
:1010D0008227069427959025822790932C01809350
:1010E0002B0180912F0120917D0190E0049630E04A
:1010F000821793072CF080917D01873408F46AC031
:101100008DE092E882DF089580917B0187FF2EC0F9
:10111000E0912F0180917B018F5F80937B01815053
:10112000ED5FE80FF0E0E35DFE4FE08180912B0181
:1011300090912C018E27282F22952827022E269564
:1011400026952025022E269520252770082E892FEA
:10115000269507942795902D82270694279590250C
:10116000822790932C0180932B012FC080917B01CB
:101170008F5F80937B018150833019F184302CF490
:10118000882399F0813001F516C0893019F08A3032
:10119000D9F402C0EDE219C0E0917C0190912F01D9
:1011A0008EEF891B80937B0110C080912B01909161
:1011B0002C01E82F0AC080912B0190912C01E92F7E
:1011C00004C08DE092E821DFEAEA8E2F90E08050A3
:1011D00098441BDF089580917B01853009F042C05F
:1011E00080912F0120917D0190E0049630E08217DC
:1011F000930724F080917D018734A0F184E08093EF
:101200007B0180912F01833430F081E090E0909356
:101210002C0180932B0180912E0186FF12C08091BA
:101220007A01282F30E0C9018F7190704F9749F0F3
:1012300080912E0190E0822793278F719070892BE7
:1012400089F480912B0190912C01892B09F043C0E6
:10125000E0917801F0917901309709F43CC080E089
:10126000099545C080917B01843011F080E008959C
:1012700010922F0180912F0180937D018FEF9FEFBE
:1012800090932C0180932B0120917C012223D9F093
:101290008227282F22952827022E2695269520255D
:1012A000022E269520252770082E892F2695079433
:1012B0002795902D82270694279590258227909335
:1012C0002C0180932B0185E080937B018DED92E8CA
:1012D0009CDE80E008958FEF9FEFAFEFBFEF80932C
:1012E000740190937501A0937601B093770181E02A
:1012F000089580917B018530B1F480917D01882330
:1013000091F41FB821E193E12DB99DB98F5F883029
:10131000D9F7789908C08DE092E877DE84E0809371
:101320007B0181E0089580E00895982F86FD05C037
:10133000907E80917A018F71980F90932E01E091A9
:101340007801F0917901309711F081E009958FEFE4
:101350009FEF90932C0180932B0180912B01909112
:101360002C0120917C018227282F22952827022EEC
:10137000269526952025022E269520252770082EB5
:10138000892F269507942795902D822706942795D7
:101390009025822790932C0180932B0186E08093E7
:1013A0007B018DE392E831DE0895282F12C02223BD
:1013B00081F095B7233011F080E001C080E1977E85
:1013C000892B85BF85B7806285BF889585B78F7D5E
:1013D00085BF80917B01843051F708951F93182FAA
:1013E00040932F0120E331E0C90150E0BDD4812FAB
:1013F0009CDF1F910895C19AB99A81E061E0FDD107
:1014000081E061E0D6D185E061E0D3D184E060E0A5
:10141000D0D186E061E0CDD180E18DB982E060E09D
:10142000C8D182E061E0E9D108951F93162F80931F
:101430007A0140937C01DFDF80E090E0E6DD85E02B
:1014400092E8E3DD80E098EB02C080E090E0DDDD33
:1014500082E00DD2892BC9F3812F90E064E0880FE0
:10146000991F6A95E1F7876C9068CFDD80E496EA72
:10147000CCDD86E096ECC9DD82EA94E9C6DD8CEA33
:1014800092ECC3DD10917C01112339F083E89AECD2
:10149000BCDD812F90E09E6C05C08BE89AECB5DD39
:1014A0008DE29EECB2DD83E894ECAFDD80E598E957
:1014B000ACDD87E79CECA9DD80E090EEA6DD80E066
:1014C00098ECA3DD89E490ECA0DD84E080937B01BF
:1014D00080917A0190E08F719070892B39F080E0D3
:1014E0006AE278E040E050E066D002C080E074D06C
:1014F00080917A011F910895FF920F931F93CF93CC
:10150000DF93F82E0FEF1FEFC0E2D0E0CE0135D40D
:101510000827802F82958027082E8695869580251E
:10152000082E869580258770002E012F86950794BA
:101530008795102D08270694879510250827219652
:10154000C034D10519F7012B11F080E02EC010E056
:1015500000E0C0E0D0E0CE0180960FD4682FCC230D
:1015600011F4162F0DC0C13011F4062F09C06623E7
:1015700059F0FF2029F089E891E040E050E0FAD2EC
:101580002196CE31D10539F7FF2019F089E891E095
:1015900004D3612F70E0E6E075956795EA95E1F771
:1015A000812F402F42DF812F8F71DF91CF911F91CB
:1015B0000F91FF900895882371F48FB7F89470937A
:1015C0007F0160937E018FBF85B78C7F842B85BFA1
:1015D0008BB780648BBF0895882339F48BB78F7BDA
:1015E0008BBF10927F0110927E0108951F920F927F
:1015F0000FB60F9211242F933F934F935F936F93E6
:101600007F938F939F93AF93BF93EF93FF938091BB
:101610007E0190917F01892B29F0E0917E01F0916C
:101620007F010995FF91EF91BF91AF919F918F91AC
:101630007F916F915F914F913F912F910F900FBECE
:101640000F901F9018951F920F920FB60F921124B2
:101650002F933F938F939F93AF93BF938091840178
:1016600090918501A0918601B09187013091880108
:10167000232F2A5F2D3728F02D570396A11DB11D6A
:1016800003C00296A11DB11D20938801809384019F
:1016900090938501A0938601B0938701809180018A
:1016A00090918101A0918201B09183010196A11DC9
:1016B000B11D8093800190938101A0938201B0932A
:1016C0008301BF91AF919F918F913F912F910F9087
:1016D0000FBE0F901F9018959FB7F894209180012E
:1016E00030918101409182015091830182B708B607
:1016F00000FE06C08F3F21F02F5F3F4F4F4F5F4FDF
:101700009FBF542F432F322F2227280F311D411DF9
:10171000511D83E0220F331F441F551F8A95D1F7B7
:10172000B901CA010895EF92FF920F931F93CF93CF
:10173000DF937B018C01D0DFEB010DC0CDDF6C1B93
:101740007D0B685E7340D0F30894E108F10801094D
:101750001109C851DC4FE114F1040105110571F7BD
:10176000DF91CF911F910F91FF90EF9008957894A2
:1017700080B7836080BF83B7877F83BF83B7887F4D
:10178000836083BF89B7816089BF8EB5887F8EBD36
:101790008FB58C7F81608FBD8EB5877E8EBD8EB5F7
:1017A000887F83608EBD86B1887F866086B9379AD0
:1017B0000895482F50E0CA01815D9C4FFC0124919F
:1017C0004C5D5C4FFA0184918823B1F0E82FF0E082
:1017D000E85EFC4FE491F0E0662341F49FB7F89493
:1017E00080812095822380839FBF08959FB7F894BE
:1017F0008081822B80839FBF0895282F482F50E03F
:10180000CA01815D9C4FFC0134914C5D5C4FFA0133
:101810009491992359F1223019F480B78F7304C041
:10182000233021F480B78F7C80BF0AC0243019F4A4
:101830008FB58F7304C0253019F48FB58F7C8FBDA1
:10184000E92FF0E0E55EFC4FE491F0E0662341F41F
:101850009FB7F89480813095832380839FBF08953C
:101860009FB7F8948081832B80839FBF0895282F92
:10187000482F50E0CA01815D9C4FFC0194914C5D62
:101880005C4FFA013491332319F420E030E022C098
:10189000223019F480B78F7304C0233021F480B74D
:1018A0008F7C80BF0AC0243019F48FB58F7304C0B9
:1018B000253019F48FB58F7C8FBDE32FF0E0E25E09
:1018C000FC4FE491F0E0808120E030E0892311F0CA
:1018D00021E030E0C90108954ADF2FD870D7FECF4C
:1018E0000F931F93CF93DF938C01EB0109C02196D7
:1018F000D801ED91FC910190F081E02DC80109958E
:1019000068816623A1F7DF91CF911F910F91089510
:10191000EF92FF920F931F93CF93DF938C017B0184
:10192000EA010CC0D7016D917D01D801ED91FC91C8
:101930000190F081E02DC80109952197209791F73A
:10194000DF91CF911F910F91FF90EF900895DC01EF
:10195000ED91FC910280F381E02D099508952F927D
:101960003F924F925F926F927F928F929F92AF922F
:10197000BF92CF92DF92EF92FF920F931F93DF936C
:10198000CF93CDB7DEB7A0970FB6F894DEBF0FBEEA
:10199000CDBF1C016A017B0141155105610571052F
:1019A00041F440E350E060E070E020E030E09CD0A3
:1019B00053C0882499245401422E55246624772448
:1019C00001E010E00C0F1D1F080D191DC701B60125
:1019D000A3019201A1D1F80160830894811C911C9C
:1019E000A11CB11CC701B601A301920195D1C90187
:1019F000DA016C017D01C114D104E104F10401F7A5
:101A000081E0E82EF12CEC0EFD1EE80CF91C3E01E5
:101A10000894611C711CD501C4010197A109B10989
:101A20006C01C818D90815C0F601EE0DFF1D4081E4
:101A30004A3010F4405D01C0495C552747FD509580
:101A4000652F752FC10120E030E04ED00894E108E9
:101A5000F1086E147F0441F7A0960FB6F894DEBF2C
:101A60000FBECDBFCF91DF911F910F91FF90EF90EF
:101A7000DF90CF90BF90AF909F908F907F906F90AE
:101A80005F904F903F902F900895DC012115310514
:101A900041F4ED91FC910190F081E02D642F0995C6
:101AA00008955DDF0895EF92FF920F931F939A01BF
:101AB0007B0100E010E0B801A701E7DF1F910F9163
:101AC000FF90EF900895EF92FF920F931F939A016A
:101AD000E62EFF2400E010E0B801A701D6DF1F9139
:101AE0000F91FF90EF900895EF92FF920F931F9345
:101AF000CF93DF93EC017A018B012115310541F47D
:101B0000E881F9810190F081E02D642F099519C0D9
:101B10002A303105A9F477FF0FC04DE250E060E0B4
:101B200070E020E030E0E0DF10950095F094E09464
:101B3000E11CF11C011D111DCE01B801A7012AE015
:101B40000EDFDF91CF911F910F91FF90EF900895DD
:101B5000EF92FF920F931F937B019A010027F7FCEE
:101B60000095102FB801A701BFDF1F910F91FF90C3
:101B7000EF900895EF92FF920F931F93E62E9A0134
:101B8000FF24E7FCF0940F2D1F2DB801A701ACDF57
:101B90001F910F91FF90EF9008950F931F938C0169
:101BA0004DE050E060E070E020E030E09DDFC801F3
:101BB0004AE050E060E070E020E030E095DF82E055
:101BC00090E01F910F910895CF92DF92EF92FF92D4
:101BD0000F931F938C019A01C62EDD24EE24FF245F
:101BE000B701A60152DFC801D8DF1F910F91FF9006
:101BF000EF90DF90CF9008950F931F938C01A7DE95
:101C0000C801CBDF1F910F910895CF92DF92EF9221
:101C1000FF920F931F938C01C62E9A01DD24C7FCFF
:101C2000D094ED2CFD2CB701A6015EDFC801B5DF15
:101C30001F910F91FF90EF90DF90CF90089508953E
:101C4000089580E090E008958FEF9FEF08958FEF63
:101C50009FEF08950895FC01A281B381ED91FC915D
:101C600011970280F381E02DCD01099581E090E08C
:101C700008952DE831E0FC0133832283C901DFDFC1
:101C80000895FC0183E990E091838083CF01F1DF27
:101C900008958BE890E090938E0180938D0189E800
:101CA00091E0EFDF08955527002480FF02C0060E63
:101CB000571F660F771F6115710521F0969587955F
:101CC000009799F7952F802D0895AA1BBB1B51E112
:101CD00007C0AA1FBB1FA617B70710F0A61BB70B9C
:101CE000881F991F5A95A9F780959095BC01CD0141
:101CF000089597FB092E07260AD077FD04D0E5DF6B
:101D000006D000201AF4709561957F4F0895F6F77C
:101D1000909581959F4F0895A1E21A2EAA1BBB1B97
:101D2000FD010DC0AA1FBB1FEE1FFF1FA217B307A7
:101D3000E407F50720F0A21BB30BE40BF50B661FBD
:101D4000771F881F991F1A9469F760957095809581
:101D500090959B01AC01BD01CF010895EE0FFF1FCF
:101D60000590F491E02D0994FB01DC0102C0019083
:101D70000D9241505040D8F70895E199FECF9FBB96
:101D80008EBBE09A99278DB30895262FE199FECF57
:101D90001CBA9FBB8EBB2DBB0FB6F894E29AE19A9A
:101DA0000FBE0196089513E0CAE4D3E003C0FE011C
:0E1DB000D7DF2296CC34D107D1F7F894FFCFBD
:101DBE002A00472000202D3E20002062003B01B16A
:101DCE00016403930300000000BD06700C880CA490
:101DDE000683067A076907000000001F0E200E001A
:101DEE000000002B0E700C880C210E270E240E2ADC
:021DFE000E00D5
:00000001FF
