:100000000C940F020C94890A0C94B60A0C943702D3
:100010000C9437020C9437020C9437020C9437027C
:100020000C9437020C9437020C9437020C9437026C
:100030000C9437020C9437020C9437020C9437025C
:100040000C94E30A0C9437020C94BC0C0C940A0D2B
:100050000C9437020C9437020C9437020C9437023C
:100060000C9437020C943702D1047D049C04DB0508
:10007000DB05EA0495047304760473043105E50492
:1000800073047304730473048D05DB05D104AA049F
:100090007304A905DB05A405730492050A41766182
:1000A000696C61626C6520636F6D6D616E64733A3B
:1000B0000A20203C6E6E3E206920202020202D202A
:1000C000736574206E6F64652049442028737461E1
:1000D0006E64617264206E6F646520696473206170
:1000E000726520312E2E3330290A20203C6E3E20AE
:1000F000622020202020202D20736574204D487A16
:100100002062616E64202834203D203433332C205B
:1001100038203D203836382C2039203D20393135E3
:10012000290A20203C6E6E6E3E2067202020202D64
:1001300020736574206E6574776F726B2067726FC1
:100140007570202852464D3132206F6E6C792061D7
:100150006C6C6F7773203231322C2030203D20615F
:100160006E79290A20203C6E3E206320202020202A
:10017000202D2073657420636F6C6C656374206D33
:100180006F64652028616476616E6365642C206EFF
:100190006F726D616C6C792030290A2020742020E8
:1001A00020202020202020202D2062726F61646397
:1001B000617374206D61782D73697A65207465733D
:1001C00074207061636B65742C2072657175657342
:1001D000742061636B0A20202E2E2E2C3C6E6E3E06
:1001E0002061202D2073656E64206461746120702D
:1001F00061636B657420746F206E6F6465203C6E64
:100200006E3E2C20726571756573742061636B0A94
:1002100020202E2E2E2C3C6E6E3E2073202D20731F
:10022000656E642064617461207061636B65742025
:10023000746F206E6F6465203C6E6E3E2C206E6F76
:100240002061636B0A20203C6E3E206C2020202021
:1002500020202D207475726E206163746976697434
:1002600079204C4544206F6E20504231206F6E2023
:100270006F72206F66660A20203C6E3E207120203F
:10028000202020202D2073657420717569657420ED
:100290006D6F6465202831203D20646F6E277420C7
:1002A0007265706F727420626164207061636B6547
:1002B0007473290A20203C6E3E20782020202020C4
:1002C000202D20736574207265706F7274696E677B
:1002D00020666F726D6174202830203D2064656354
:1002E000696D616C2C2031203D20686578290A20D9
:1002F00020313233207A2020202020202D20746FBE
:1003000074616C20706F77657220646F776E2C203B
:100310006E65656473206120726573657420746F07
:1003200020737461727420757020616761696E0A50
:1003300052656D6F746520636F6E74726F6C2063AD
:100340006F6D6D616E64733A0A20203C6863686962
:100350003E2C3C68636C6F3E2C3C616464723E2CA6
:100360003C636D643E206620202020202D204653D3
:10037000323020636F6D6D616E642028383638200E
:100380004D487A290A20203C616464723E2C3C640A
:1003900065763E2C3C6F6E3E206B20202020202076
:1003A00020202020202020202D204B414B55206351
:1003B0006F6D6D616E642028343333204D487A2987
:1003C0000A0000000000240027002A0000000000AE
:1003D000250028002B000000000023002600290033
:1003E00004040404040404040202020202020303DB
:1003F00003030303010204081020408001020408E3
:100400001020010204081020000000070002010073
:100410000003040600000000000000006D0E11241F
:100420001FBECFEFD8E0DEBFCDBF11E0A0E0B1E04E
:10043000E2E4F1E202C005900D92A838B107D9F7C5
:1004400013E0A8E8B1E001C01D92A234B107E1F7C2
:1004500014E0CEE1D4E004C02297FE010E949B107C
:10046000CC31D107C9F70E94C30E0C949F100C9495
:100470000000FB01DC0102C001900D924150504090
:10048000D8F70895FB01DC010D900020E9F71197E2
:1004900001900D920020E1F70895FB01DC0101902D
:1004A0000D920020E1F708951F93182F80E293E04A
:1004B00060E071E00E942E10112321F080E293E0B1
:1004C0000E94040F1F9108951F93182F8091880197
:1004D0008823E9F0812F90E024E0959587952A956F
:1004E000E1F78F70682F605D6A330CF0695F80E21E
:1004F00093E00E94FC0E812F8F70682F605D6A333D
:100500000CF0695F80E293E00E94FC0E08C080E27C
:1005100093E0612F70E04AE050E00E94FC0F1F91D1
:1005200008951F93CF93DF93CCE9D0E0FE0121968D
:100530001491112369F01A3029F480E293E06DE000
:100540000E94FC0E80E293E0612F0E94FC0EEECF31
:1005500080E293E066E171E00E94311081E00E9448
:10056000E809DF91CF911F9108950F931F93CF93C7
:10057000DF93EC018B016A30710540F0CB016AE03A
:1005800070E00E946310CE010E94B502DE010D9062
:100590000020E9F71197AC1BCA0FD11DC8016AE012
:1005A00070E00E946310805D8883DF91CF911F917E
:1005B0000F9108951F93CF93DF93CBE8D1E08CE1A7
:1005C000FE0111928A95E9F7CE016DE271E00E9479
:1005D0004D02109189011F71FE0101900020E9F781
:1005E000EC58F140F0E0EC0FFD1F105C108310544C
:1005F000CE016FE271E00E944202CE01612F70E0F5
:100600000E94B5028091890185FF0BC0FE01019017
:100610000020E9F7EC58F140F0E0EC0FFD1F8AE212
:1006200080838BE891E062E371E00E944202609176
:100630008A018BE891E070E00E94B5028BE891E0BE
:1006400065E371E00E944202E0918901F0E046E03A
:10065000F595E7954A95E1F7EE0FFF1FE159FE4F3B
:10066000608171818BE891E00E94B5028BE891E096
:1006700069E371E00E9442028FEF9FEF9093A8011F
:100680008093A701E9E8F1E021918091A701909181
:10069000A8018227282F22952827022E2695269505
:1006A0002025022E269520252770082E892F269595
:1006B00007942795902D82270694279590258227C9
:1006C0009093A8018093A70181E0E73AF807E1F64B
:1006D00080E290E0FC01E759FE4FE081F999FECFFE
:1006E0001FBA92BD81BDE0BD0FB6F894FA9AF99A8F
:1006F0000FBE01968034910569F781E00E94E809F8
:10070000882331F480E293E06FE371E00E943110BE
:10071000DF91CF911F910895EF92FF920F931F9356
:100720008C017B0181E00E94ED08C8018A569F4F31
:100730000E94900B80E00E94ED08C701885C904009
:100740000E94900B1F910F91FF90EF9008950F93CF
:100750001F93CF93DF93EC016830A1F49C01220F2B
:10076000331F082E82958025082E86958695802534
:10077000C82FD0E02196D595C795C170D070C22BF7
:10078000D32B69E0262F30E02150304081E090E00B
:10079000A0E0B0E004C0880F991FAA1FBB1F2A95D4
:1007A000D2F78C010FC0C8018C239D23892B19F42B
:1007B00060E971E002C068E572E0CB010E948C0341
:1007C000169507950115110571F7DF91CF911F91CE
:1007D0000F9108951F93182F89E061E00E94D50BB7
:1007E00060E0112309F461E089E00E94140C1F917C
:1007F0000895CF92DF92EF92FF920F931F93CF93C2
:10080000DF9380E293E00E94C30D892B09F4E4C1D9
:1008100080E293E00E94F40D182F80538A3058F440
:100820008091EE012AE0829FC00111248053810F44
:100830008093EE01D1C11C3289F49091EF0196347E
:1008400050F4E92FF0E0E051FE4F8091EE018083FB
:100850009F5F9093EF011092EE01BEC1812F8156F0
:100860008A3108F07AC180E293E062E571E00E948B
:100870002E1000E012C0E02FF0E0E051FE4F60814A
:1008800080E293E070E04AE050E00E94FC0F80E2DA
:1008900093E06CE20E94FC0E0F5F8091EF0108175D
:1008A00050F36091EE0180E293E070E04AE050E0A6
:1008B0000E94FC0F80E293E0612F0E94240F812FA1
:1008C000992787FD9095A92FB92FFC01E156F0409B
:1008D000EA31F10540F4EC5CFF4FEE0FFF1F05908D
:1008E000F491E02D09940E94910265C19091EE016E
:1008F0009F7180918901807E14C08091EE018823D0
:10090000C1F0883011F492E005C0893011F091E017
:1009100001C093E09295990F990F907C8091890185
:100920008F73980F9093890104C08091EE0180939A
:100930008A010E94DA023FC18091EE01882321F0F2
:1009400080918901806203C0809189018F7D8093AD
:100950008901EFCF81E68093A90182E48093AA0107
:100960001092AB01ECEAF1E090E080913602890F41
:1009700081939F5F9234C9F780E293E065E571E06F
:100980000E942E106091360280E293E070E04AE00F
:1009900050E00E940F10809136028F5F80933602E4
:1009A0000AC11093A9014091EF014093AA018091DF
:1009B000EE018093AB012CEA31E0E0EFF1E0C901F8
:1009C000BF0150E00E943902F6C08091EE010E9402
:1009D000EA03F1C080E062E044ED0E946C0981E02E
:1009E0000E94EA039091F00180E02091F101EC0176
:1009F000C20FD11DD090F201E090EE01FD2E1D2D11
:100A00001E0D1A5F1C0F1D0F00E081E090E06DE0ED
:100A10000E94A7038F2D90E068E00E94A703CE01FB
:100A200068E00E94A7038D2D90E068E00E94A70374
:100A30008E2D90E068E00E94A703812F90E068E08F
:100A40000E94A70380E090E061E00E94A7036AE0B3
:100A500070E080E090E00E94370B0F5F0330A9F652
:100A600058C080E061E044ED0E946C0981E00E9482
:100A7000EA038091F101C82FD0E02197F4E0CC0F78
:100A8000DD1FFA95E1F7D6608091F001992787FD87
:100A9000909501978F709070C82BD92B8091EE01A3
:100AA0008111D860FF24ECEDCE2EE5E0DE2E2EC0C5
:100AB00087E791E065E674E00E948C03CE01002E8A
:100AC00002C0959587950A94E2F780FD03C087E7F9
:100AD00091E002C085E694E0B601681B790B0E94A4
:100AE0008C030F5F1F4F0C30110511F787E791E062
:100AF00067E771E00E948C036BE070E080E090E0BB
:100B00000E94370BF39484E0F81619F000E010E02F
:100B1000CFCF80E00E94EA034BC08091EE0180932A
:100B2000370249C08091EE018B3709F044C06AE07A
:100B300070E080E090E00E94370B80E00E94F708B0
:100B4000F8940E94D70637C08091EE018093880107
:100B500032C081E00E9454022EC01E33C1F5809144
:100B6000EF01E82FF0E0E051FE4F9091EE0190830D
:100B70008F5F8093EF018091F2019091F0019830A6
:100B800011F462E005C0993011F061E001C063E04A
:100B90004091F1010E946C094091EF014450809115
:100BA000F30164EF71E00E94220982E00E94D00804
:100BB00080E00E94E8091092EF011092EE0186E4B5
:100BC000E0EFF1E0DF011D928A95E9F705C01152CF
:100BD000103210F40E9491020E94E707882309F462
:100BE00069C010913C028091380290913902892BA2
:100BF00009F098C081E00E94EA038091880188236F
:100C000029F080E293E068E50E94FC0E80918A0161
:100C1000882351F480E293E06BE571E00E942E108E
:100C200080913A020E94640280E293E060E20E94B6
:100C3000FC0E80913B020E946402C0E0D0E010C034
:100C400080918801882329F480E293E060E20E9489
:100C5000FC0EFE01E35CFD4F80810E946402219640
:100C6000C11770F380E293E00E94040F80913B0271
:100C700085FF1DC080913B0287FD19C080918901CD
:100C800085FD15C080E293E06EE571E00E943110B1
:100C900080913B0286FF02C080E804C080913B0245
:100CA0008F71806C60E070E040E00E94130980E08A
:100CB0000E94EA038091A9018823A1F10E9476088D
:100CC000882381F181E00E94EA0380E293E066E6F6
:100CD00071E00E942E106091AA0180E293E070E022
:100CE0004AE050E00E94FC0F80E293E06BE671E086
:100CF0000E9431108091A901813611F080E001C07D
:100D000080E29091AB01992311F09064892B6CEAF9
:100D100071E04091AA010E9413091092A90180E09C
:100D20000E94EA03DF91CF911F910F91FF90EF9006
:100D3000DF90CF90089580E293E040E855E260E0D4
:100D400070E00E94450D80E00E94540281E00E9404
:100D5000EA0381E00E94E8098823A9F0F999FECF0F
:100D600080E290E092BD81BDF89A80B580938901C0
:100D7000F999FECF81E290E092BD81BDF89A80B5ED
:100D800080938A0108C081E88093890182ED809375
:100D90008A010E94DA020E94910260ED77E080E011
:100DA00090E00E94370B80E00E94EA030895EAE792
:100DB000F0E0908180818F77808383B7817F84602A
:100DC00083BFF89483B7816083BF85B7806685BF92
:100DD00085B78F79806485BF7894889583B78E7F37
:100DE00083BF90937A000895782F65B121E030E0B9
:100DF00040E050E000906E0104C0220F331F441FFA
:100E0000551F0A94D2F7322F822F8095862385B9F9
:100E10009EBD0DB407FEFDCF4EB57EBD0DB407FEE1
:100E2000FDCF2EB5942F80E045B1342B35B930E09D
:100E3000282B392BC9010895E8980E94F406E89AF6
:100E4000089580E090E00E94F40680918802853049
:100E500009F054C080E090EB0E94F406282F8091A6
:100E60008A02882371F490918902992351F080912C
:100E70008A02E82FF0E0E65CFD4F90838F5F80935D
:100E80008A0280918A02E82FF0E0E65CFD4F208321
:100E90008F5F80938A028091380290913902822775
:100EA000282F22952827022E269526952025022ECA
:100EB000269520252770082E892F2695079427959B
:100EC000902D8227069427959025822790933902AA
:100ED0008093380280913C0220918A0290E004962F
:100EE00030E0821793072CF080918A02873408F44F
:100EF0006DC08DE092E80E94F4060895809188020A
:100F000087FF2EC0E0913C02809188028F5F809322
:100F100088028150ED5FE80FF0E0E65CFD4FE08174
:100F200080913802909139028E27282F2295282708
:100F3000022E269526952025022E269520252770FF
:100F4000082E892F269507942795902D82270694A1
:100F5000279590258227909339028093380230C0DC
:100F6000809188028F5F809388028150833019F1CD
:100F700084302CF4882399F0813009F516C089302B
:100F800019F08A30E1F402C0EDE21AC0E091890262
:100F900090913C028EEF891B8093880211C0809152
:100FA000380290913902E82F0BC08091380290915D
:100FB0003902E92F05C08DE092E80E94F406EAEAC2
:100FC0008E2F90E0805098440E94F40608958091FE
:100FD0008802853009F042C080913C0220918A024B
:100FE00090E0049630E08217930724F080918A0203
:100FF0008734A0F184E08093880280913C0283349E
:1010000030F081E090E09093390280933802809133
:101010003B0286FF12C080918702282F30E0C90171
:101020008F7190704F9749F080913B0290E082273A
:1010300093278F719070892B89F480913802909159
:101040003902892B09F044C0E0918502F0918602B3
:10105000309709F43DC080E0099546C08091880230
:10106000843011F080E0089510923C0280913C029F
:1010700080938A028FEF9FEF90933902809338021A
:10108000209189022223D9F08227282F2295282710
:10109000022E269526952025022E2695202527709E
:1010A000082E892F269507942795902D8227069440
:1010B000279590258227909339028093380285E006
:1010C000809388028DED92E80E94F40680E00895F6
:1010D0008FEF9FEFAFEFBFEF80938102909382027B
:1010E000A0938302B093840281E0089580918802E6
:1010F000853099F480918A02882379F480E090E029
:101100000E941C0790FD09C08DE092E80E941C0718
:1011100084E08093880281E0089580E00895982F0C
:1011200086FD05C0907E809187028F71980F909305
:101130003B02E0918502F0918602309711F081E048
:1011400009958FEF9FEF9093390280933802809139
:10115000380290913902209189028227282F229506
:101160002827022E269526952025022E2695202515
:101170002770082E892F269507942795902D822772
:101180000694279590258227909339028093380200
:1011900086E0809388028DE392E80E94F406089529
:1011A000282F16C02223A1F093B7233011F484E036
:1011B00005C0223011F080E001C08CE0917F892BC6
:1011C00083BF83B7816083BF889583B78E7F83BFDA
:1011D00080918802843031F70895882319F48DE0D6
:1011E00092E802C08DE392E80E94F40608951F93EE
:1011F000182F87FF03C08DE092E80EC0992787FD66
:101200009095956E0E941C0785E092E80E941C074D
:10121000112321F087E092E80E941C0784E080936C
:1012200088021F9108951F93182F40933C022DE3CD
:1012300032E0C90150E00E943902812F0E948F08DC
:101240001F9108950F931F93CF93DF93182FEB01F6
:10125000042F02C00E94E7070E9476088823D1F37A
:10126000812FBE01402F0E941309DF91CF911F9162
:101270000F91089525B181E090E0A0E0B0E00090EA
:101280006E0104C0880F991FAA1FBB1F0A94D2F7D2
:10129000282B25B924B1822B84B98AE061E00E9411
:1012A000140C8AE061E00E94D50B8BE061E00E94A3
:1012B000D50B8CE060E00E94D50B8DE061E00E94D0
:1012C000D50B80E58CBD82E060E00E94D50B82E00A
:1012D00061E00E94140C08951F93162F80938702DB
:1012E000409389020E943A0980E090E00E94F4064F
:1012F00085E092E80E94F40680E098EB02C080E06E
:1013000090E00E94F40682E00E94680C892BB9F3F9
:10131000812F90E074E0880F991F7A95E1F7876C30
:1013200090680E94F40680E496EA0E94F40686E043
:1013300096EC0E94F40682EA94E90E94F4068CEA94
:1013400092EC0E94F40610918902112341F083E887
:101350009AEC0E94F406812F90E09E6C06C08BE808
:101360009AEC0E94F4068DE29EEC0E94F40683E85B
:1013700094EC0E94F40680E598E90E94F40687E761
:101380009CEC0E94F40680E090EE0E94F40680E05F
:1013900098EC0E94F40689E490EC0E94F40684E044
:1013A000809388028091870290E08F719070892BE2
:1013B00041F080E061E277E040E050E00E94530AB3
:1013C00003C080E00E94760A809187021F910895F1
:1013D000EF92FF920F931F93CF93DF93E82E4FEF7F
:1013E0005FEF20E230E0F999FECF32BD21BDF89ADF
:1013F00080B54827842F82958427082E8695869568
:101400008025082E869580258770042E452F869589
:1014100007948795502D482706948795502548278F
:101420002F5F3F4F2034310509F0DDCF452B11F000
:1014300080E032C000E0FF2410E0C0E2D0E0F99983
:10144000FECFD2BDC1BDF89A60B5112311F4062FAD
:101450000CC0113011F4F62E08C0662351F0EE20B6
:1014600021F080E293E00E94FC0E1F5F21961E3166
:1014700031F7EE2021F080E293E00E94040F602F0C
:1014800070E0E6E075956795EA95E1F7802F4F2DBE
:101490000E946C09802F8F71DF91CF911F910F9166
:1014A000FF90EF900895823000F5E82FF0E0EE0F06
:1014B000FF1FE557FD4F71836083882319F081304A
:1014C000A1F408C0809169008C7F842B809369000F
:1014D000E89A089580916900440F551F440F551FE5
:1014E000837F842B80936900E99A0895823080F489
:1014F000882319F0813021F402C0E89801C0E998EE
:10150000E82FF0E0EE0FFF1FE557FD4F118210822C
:1015100008951F920F920FB60F9211242F933F93AD
:101520004F935F936F937F938F939F93AF93BF93EB
:10153000EF93FF9380918B0290918C02892B29F07D
:10154000E0918B02F0918C020995FF91EF91BF9190
:10155000AF919F918F917F916F915F914F913F914B
:101560002F910F900FBE0F901F9018951F920F9202
:101570000FB60F9211242F933F934F935F936F9366
:101580007F938F939F93AF93BF93EF93FF9380913C
:101590008D0290918E02892B29F0E0918D02F091BD
:1015A0008E020995FF91EF91BF91AF919F918F911D
:1015B0007F916F915F914F913F912F910F900FBE4F
:1015C0000F901F9018951F920F920FB60F92112433
:1015D0002F933F934F935F936F937F938F939F933B
:1015E000AF93BF9320919302309194024091950262
:1015F0005091960270919702DA01C9010296A11DDD
:10160000B11D672F6A5F6D3730F06D57DA01C90180
:101610000396A11DB11D609397028093930290934E
:101620009402A0939502B093960280918F029091BC
:101630009002A0919102B09192020196A11DB11D5C
:1016400080938F0290939002A0939102B0939202A4
:10165000BF91AF919F918F917F916F915F914F91CA
:101660003F912F910F900FBE0F901F9018959B01E7
:10167000AC017FB7F89480918F0290919002A09175
:101680009102B091920266B5A89B05C06F3F19F018
:101690000196A11DB11D7FBFBA2FA92F982F8827B2
:1016A000860F911DA11DB11D63E0880F991FAA1F10
:1016B000BB1F6A95D1F7BC012DC0FFB7F89480918C
:1016C0008F0290919002A0919102B0919202E6B5A2
:1016D000A89B05C0EF3F19F00196A11DB11DFFBFEA
:1016E000BA2FA92F982F88278E0F911DA11DB11DEC
:1016F000E3E0880F991FAA1FBB1FEA95D1F7861B4D
:10170000970B885E9340C8F22150304040405040D3
:1017100068517C4F211531054105510571F6089539
:10172000019739F0019729F0880F991F01970197C8
:10173000F1F70895789484B5826084BD84B58160A2
:1017400084BD85B5826085BD85B5816085BDEEE6C9
:10175000F0E0808181608083E1E8F0E010828081A8
:1017600082608083808181608083E0E8F0E0808116
:1017700081608083E1EBF0E0808184608083E0EB36
:10178000F0E0808181608083EAE7F0E0808184601E
:10179000808380818260808380818160808380817A
:1017A000806880831092C1000895CF93DF93482F03
:1017B00050E0CA018C509C4FFC01349140525C4F68
:1017C000FA018491882369F190E0880F991FFC0148
:1017D000EE53FC4FA591B491FC01E453FC4FC5912D
:1017E000D491662351F42FB7F8948C91932F909550
:1017F00089238C93888189230BC0623061F42FB7D1
:10180000F8948C91932F909589238C938881832BC6
:1018100088832FBF06C09FB7F8948C91832B8C933D
:101820009FBFDF91CF910895482F50E0CA01885F94
:101830009B4FFC012491CA018C509C4FFC01949158
:1018400040525C4FFA013491332309F440C0222303
:1018500051F1233071F0243028F42130A1F02230EE
:1018600011F514C02630B1F02730C1F02430D9F47E
:1018700004C0809180008F7703C0809180008F7DAD
:101880008093800010C084B58F7702C084B58F7DAF
:1018900084BD09C08091B0008F7703C08091B000F3
:1018A0008F7D8093B000E32FF0E0EE0FFF1FE45335
:1018B000FC4FA591B4912FB7F894662321F48C9135
:1018C0009095892302C08C91892B8C932FBF08950A
:1018D000682F70E0CB01885F9B4FFC012491CB0106
:1018E0008C509C4FFC01449160527C4FFB019491C1
:1018F000992319F420E030E03CC0222351F1233039
:1019000071F0243028F42130A1F0223011F514C0F8
:101910002630B1F02730C1F02430D9F404C08091D2
:1019200080008F7703C0809180008F7D809380003E
:1019300010C084B58F7702C084B58F7D84BD09C087
:101940008091B0008F7703C08091B0008F7D80932D
:10195000B000892F90E0880F991F8A529C4FFC019C
:10196000A591B4918C9120E030E0842311F021E026
:1019700030E0C901089508951F920F920FB60F929B
:1019800011242F933F934F938F939F93EF93FF9344
:101990008091C00082FD1DC04091C6002091D802F8
:1019A0003091D9022F5F3F4F2F7330708091DA0250
:1019B0009091DB022817390771F0E091D802F0917D
:1019C000D902E856FD4F40833093D9022093D802C4
:1019D00002C08091C600FF91EF919F918F914F912E
:1019E0003F912F910F900FBE0F901F901895E0918F
:1019F0002C03F0912D03E05CFF4F819191912081A8
:101A00003181821B930B8F739070892B11F00E9490
:101A1000BB0C08951F920F920FB60F9211242F93B3
:101A20003F938F939F93EF93FF9320911C033091EB
:101A30001D0380911E0390911F032817390731F46D
:101A40008091C1008F7D8093C10014C0E0911E037E
:101A5000F0911F03E452FD4F208180911E0390916D
:101A60001F0301968F73907090931F0380931E0342
:101A70002093C600FF91EF919F918F913F912F91FD
:101A80000F900FBE0F901F901895AF92BF92DF92EC
:101A9000EF92FF920F931F93CF93DF93EC017A01A4
:101AA0008B01DD24D39491E0A92EB12CEC89FD8922
:101AB000DD2069F0C50108A002C0880F991F0A94B3
:101AC000E2F7808360E874E88EE190E005C0108260
:101AD00060E472E48FE090E0A80197010E94771023
:101AE00021503040404050405695479537952795B6
:101AF00080E12030380720F0DD2011F0DD24D6CF42
:101B0000E889F9893083EA89FB89208319A2EE8963
:101B1000FF89408121E030E0C9010C8C02C0880FB0
:101B2000991F0A94E2F7482B4083EE89FF89408190
:101B3000C9010D8C02C0880F991F0A94E2F7482B47
:101B40004083EE89FF894081C9010E8C02C0880F55
:101B5000991F0A94E2F7482B4083EE89FF89808120
:101B60000F8C02C0220F331F0A94E2F7209528231E
:101B70002083DF91CF911F910F91FF90EF90DF9025
:101B8000BF90AF900895DC011C96ED91FC911D97DC
:101B9000E05CFF4F2191319180819181281B390BAD
:101BA0002F733070C9010895DC011C96ED91FC91F2
:101BB0001D97E05CFF4F20813181E054F040DF0150
:101BC000AE5BBF4F8D919C9111972817390719F47F
:101BD0002FEF3FEF07C08D919C91E80FF91F808197
:101BE000282F30E0C9010895DC011C96ED91FC918D
:101BF0001D97E05CFF4F20813181E054F040DF0110
:101C0000AE5BBF4F8D919C9111972817390719F43E
:101C10002FEF3FEF10C08D919C911197E80FF91FA6
:101C200020818D919C91119701968F7390701196E0
:101C30009C938E9330E0C9010895DC0191968C91BC
:101C40009197882339F05496ED91FC9155978081B6
:101C500086FFF9CF91961C920895CF93DF93EC0104
:101C6000EE85FF85E05CFF4F20813181E054F0403C
:101C70002F5F3F4F2F733070DF01AE5BBF4F8D91F1
:101C80009C91119728173907D1F3E05CFF4F8081B1
:101C90009181E054F040E80FF91F6083EE85FF85E5
:101CA000E05CFF4F31832083EE89FF89208181E052
:101CB00090E00F8C02C0880F991F0A94E2F7282B3E
:101CC000208381E089A3EC89FD8980818064808301
:101CD00081E090E0DF91CF9108951092230310925C
:101CE000220388EE93E0A0E0B0E080932403909379
:101CF0002503A0932603B09327038BE791E09093ED
:101D000021038093200388E992E090932D03809330
:101D10002C038CED92E090932F0380932E0385EC9F
:101D200090E0909331038093300384EC90E09093A3
:101D300033038093320380EC90E0909335038093DB
:101D4000340381EC90E0909337038093360382EC68
:101D500090E0909339038093380386EC90E0909361
:101D60003B0380933A0384E080933C0383E08093B9
:101D70003D0387E080933E0385E080933F0381E04D
:101D8000809340030895CF93DF930E949A0B0E94A3
:101D90009B06C7EFDCE00E94F9032097E1F30E9465
:101DA000F70CF9CFCF92DF92EF92FF920F931F9330
:101DB000CF93DF937C016B018A01C0E0D0E00FC0BC
:101DC000D6016D916D01D701ED91FC910190F081EB
:101DD000E02DC7010995C80FD91F0150104001150A
:101DE000110571F7CE01DF91CF911F910F91FF90F7
:101DF000EF90DF90CF900895DC01ED91FC91019080
:101E0000F081E02D09950895EF92FF920F931F93B3
:101E10008C01DC01ED91FC910190F081E02D6DE0F1
:101E200009957C01D801ED91FC910190F081E02DA4
:101E3000C8016AE009959C012E0D3F1DC9011F9143
:101E40000F91FF90EF900895EF92FF920F931F93E1
:101E50007C01DC01ED91FC910190F081E02D099570
:101E60008C01C7010E94040F080F191FC8011F91A0
:101E70000F91FF90EF900895CF93DF93EC016115E0
:101E8000710519F420E030E00FC0DB010D90002057
:101E9000E9F71197A61BB70BE881F9810280F3815E
:101EA000E02DAD0109959C01C901DF91CF91089505
:101EB0004F925F927F928F929F92AF92BF92CF92FA
:101EC000DF92EF92FF920F931F93DF93CF93CDB7E3
:101ED000DEB7A1970FB6F894DEBF0FBECDBF2C01C1
:101EE000742ECB01223008F42AE019A231E2C32E6D
:101EF000D12CCC0EDD1E822E9924AA24BB24672D62
:101F0000752FA50194010E94771079018A01C801FB
:101F1000B701A50194010E944410472D461B089467
:101F2000C108D1084A3014F4405D01C0495CF60193
:101F30004083E114F1040105110521F07E2C5F2D91
:101F4000C801DDCFC201B6010E943C0FA1960FB6B9
:101F5000F894DEBF0FBECDBFCF91DF911F910F91DF
:101F6000FF90EF90DF90CF90BF90AF909F908F90B9
:101F70007F905F904F900895CF92DF92EF92FF9203
:101F80000F931F93CF93DF93EC016A017B0121151F
:101F9000310541F4E881F9810190F081E02D642F51
:101FA00009951FC02A303105D1F477FF17C0E881A9
:101FB000F9810190F081E02D6DE209958C014427B3
:101FC0005527BA014C195D096E097F09CE012AE037
:101FD0000E94580F9801280F391F04C02AE00E9460
:101FE000580F9C01C901DF91CF911F910F91FF9074
:101FF000EF90DF90CF900895EF92FF920F931F9391
:102000007B019A010027F7FC0095102FB801A7016A
:102010000E94BC0F1F910F91FF90EF900895CF92F7
:10202000DF92EF92FF920F931F936C017B019A0155
:102030000027F7FC0095102FB801A7010E94BC0FE4
:102040008C01C6010E94040F080F191FC8011F91BF
:102050000F91FF90EF90DF90CF9008950E943C0F7A
:102060000895EF92FF920F931F937C010E943C0F03
:102070008C01C7010E94040F080F191FC8011F918E
:102080000F91FF90EF900895629FD001739FF00130
:10209000829FE00DF11D649FE00DF11D929FF00DF8
:1020A000839FF00D749FF00D659FF00D9927729F2F
:1020B000B00DE11DF91F639FB00DE11DF91FBD01BA
:1020C000CF0111240895AA1BBB1B51E107C0AA1F11
:1020D000BB1FA617B70710F0A61BB70B881F991FC9
:1020E0005A95A9F780959095BC01CD010895A1E27C
:1020F0001A2EAA1BBB1BFD010DC0AA1FBB1FEE1F82
:10210000FF1FA217B307E407F50720F0A21BB30BCC
:10211000E40BF50B661F771F881F991F1A9469F748
:1021200060957095809590959B01AC01BD01CF01A4
:102130000895EE0FFF1F0590F491E02D0994F89497
:02214000FFCFCF
:102142000A5B5246313264656D6F2E31305F524602
:102152004D3250695D0043757272656E7420636F13
:102162006E66696775726174696F6E3A002000204D
:10217200690020670020402000204D487A2000633B
:102182006F6E6669672073617665206661696C654A
:1021920064003E2000746573742000204700202DE7
:1021A2003E2061636B00202D3E2000206200023B36
:1021B20001B10164039303000000002D0ED20EC38F
:0821C2000DF40DD40D1D0E00FB
:00000001FF
